:100000000C9432000C944F000C944F000C94160288
:100010000C944F000C944F000C944F000C944F0024
:100020000C944F000C944F000C944F000C946502FC
:100030000C944F000C944F000C944F000C944F0004
:100040000C944F000C944F000C944F000C944F00F4
:100050000C944F00CB05CF05D405D905DE05E3058B
:10006000E805ED0511241FBECFE5D8E0DEBFCDBF0A
:1000700010E0A0E6B0E0ECEBF0E102C005900D92DC
:10008000A236B107D9F720E0A2E6B0E001C01D9288
:10009000A137B207E1F70E9476020C945C080C9439
:1000A00000000E9452040E9432060895C2E0D4E08B
:1000B0000E94520661E070E080E090E00E9430040F
:1000C00082E690E00E946306809162008E3138F4EF
:1000D000D093630069E18C2F0E94590415C092EE01
:1000E000980F963038F4C093630069E183E00E9472
:1000F00059040AC0833220F081E0809363000BC072
:1001000081E08093630007C06EE170E080E090E0E2
:100110000E943004CDCF69E181E00E945904F4CF00
:10012000009709F455C0FC012081243008F052C02A
:100130002130C1F028F0223039F12330B9F14CC020
:10014000FC012281211107C02AB38181809582237D
:100150008ABB81E008952AB3FC018181822B8ABB8E
:1001600081E00895FC012281211107C027B381811C
:100170008095822387BB81E0089527B3FC018181AC
:10018000822B87BB81E00895FC012281211107C0E9
:1001900024B381818095822384BB81E0089524B3B8
:1001A000FC018181822B84BB81E00895FC012281C6
:1001B000211107C021B381818095822381BB81E019
:1001C000089521B3FC018181822B81BB81E00895D8
:1001D00080E0089580E0089580E008958430E0F59F
:1001E000813099F028F08230E9F0833041F136C057
:1001F000411106C08BB3609568236BBB81E0089505
:100200008BB3682B6BBB81E00895411106C088B3A6
:100210006095682368BB81E0089588B3682B68BB4C
:1002200081E00895411106C085B36095682365BBE0
:1002300081E0089585B3682B65BB81E00895411185
:1002400006C082B36095682362BB81E0089582B3E3
:10025000682B62BB81E0089580E0089580E00895F6
:10026000813029F484B7806484BF81E008958111CE
:1002700005C084B78F7B84BF81E0089580E0089536
:10028000CF93DF9300D01F92CDB7DEB7813041F01E
:1002900018F0823049F015C08BB780648BBF13C053
:1002A0008BB780688BBF0FC08BB780628BBF81E03C
:1002B000898384E08A831B82CE0101960E9490008C
:1002C00002C080E001C081E09FB790689FBF0F909F
:1002D0000F900F90DF91CF910895813049F018F081
:1002E000823059F012C08BB78F7B8BBF81E00895AD
:1002F0008BB78F778BBF81E008958BB78F7D8BBFD6
:100300008AB780628ABF81E0089580E008950F93E4
:100310001F93CF93DF9300D000D000D0CDB7DEB7CE
:10032000009729F18C01CE01019626E0FC01119283
:100330002A95E9F7F8012181298321E02B8327E021
:100340002C8320E430E030936600209365000E9407
:10035000B90460E070E0F80181810E944705F8016E
:1003600080810E94400181E00E94300101C080E054
:1003700026960FB6F894DEBF0FBECDBFDF91CF91AA
:100380001F910F910895882329F0833008F44AC003
:1003900080E008956130C1F018F0623049F144C046
:1003A0002091690030916A0060916500709166004B
:1003B000629FC001639F900D729F900D1124FA01FE
:1003C0009183808381E008952091670030916800D7
:1003D0006091650070916600629FC001639F900DFF
:1003E000729F900D1124FA019183808381E008951A
:1003F0008091690090916A002091670030916800B7
:10040000821B930B6091650070916600869F90013E
:10041000879F300D969F300D1124FA013183208380
:1004200081E0089581E0089580E008951F920F9281
:100430000FB60F9211242F933F934F935F936F93B7
:100440007F938F939F93AF93BF93EF93FF9380918D
:1004500060008823C1F0813039F560E070E080E011
:100460000E94470569E670E080E00E94FD0582E099
:100470000E946D0180E00E94300182E00E944001F4
:100480001092600011C067E670E080E00E94FD05F8
:1004900082E00E946D0181E00E94300182E00E94B2
:1004A000400181E080936000FF91EF91BF91AF9197
:1004B0009F918F917F916F915F914F913F912F917C
:1004C0000F900FBE0F901F9018951F920F920FB6AE
:1004D0000F9211248F93809164008F5F809364004A
:1004E0008F910F900FBE0F901F9018950E94510092
:1004F0000E94560080E090E008950F931F93CF93E1
:10050000DF93CDB7DEB729970FB6F894DEBF0FBEE5
:10051000CDBF813019F08230F9F03CC003E009838F
:1005200080E18A831FEF1B83CE0101960E94900019
:100530000C8384E08D831E83CE0104960E9490007C
:100540000F8388E088871987CE0107960E94900064
:1005500081E080936C001FC003E0098380E28A83FE
:100560001FEF1B83CE0101960E9490000C8380E454
:100570008D831E83CE0104960E9490000F8380E835
:1005800088871987CE0107960E94900081E08093AA
:100590006D0001C080E029960FB6F894DEBF0FBE53
:1005A000CDBFDF91CF911F910F910895813019F048
:1005B000823059F154C0613021F0D8F0623069F0D6
:1005C00050C04FEF64E083E00E94EE0040E068E03E
:1005D00083E00E94EE0081E0089540E064E083E063
:1005E0000E94EE004FEF68E083E00E94EE0081E0A1
:1005F000089540E064E083E00E94EE0040E068E09F
:1006000083E00E94EE0081E00895613021F0D8F08F
:10061000623069F028C04FEF60E483E00E94EE0092
:1006200040E060E883E00E94EE0081E0089540E051
:1006300060E483E00E94EE004FEF60E883E00E94F8
:10064000EE0081E0089540E060E483E00E94EE0067
:1006500040E060E883E00E94EE0081E0089580E0E1
:10066000089581E0089581E008951F93CF93DF936B
:1006700000D0CDB7DEB7162F813019F0823089F067
:1006800020C081E08983CE0101960E94790328EC85
:1006900030E040E050E0612F89810E94B50381E0A5
:1006A00011C082E08983CE0101960E94790328EC73
:1006B00030E040E050E0612F89810E94B50380E086
:1006C00001C080E00F900F90DF91CF911F910895AE
:1006D000813019F0823031F00AC081E00E9421049B
:1006E00081E0089582E00E94210481E0089580E085
:1006F0000895CF93DF9300D000D000D0CDB7DEB700
:10070000009739F1FC012FB5206A2FBD2EB520616D
:100710002EBD1DBC1CBC8081813019F0823069F077
:100720001AC08FEF8B8383E0898380E28A83CE01B6
:1007300001960E94900081E00FC08FEF8E8383E0CE
:100740008C8380E18D83CE0104960E94900081E02D
:1007500003C080E001C080E026960FB6F894DEBFAB
:100760000FBECDBFDF91CF910895CF92DF92EF9270
:10077000FF920F931F93CF93DF93D82FC62F60E084
:1007800074E284EF90E00E942508DA01C901B69571
:10079000A7959795879597BD86BDD13019F0D23032
:1007A00011F142C006B517B56C2F70E080E090E003
:1007B0000E942C0720E030E048EC52E40E948906B9
:1007C0006B017C01B80180E090E00E942A079B0148
:1007D000AC01C701B6010E94B8070E94FB067BBDB1
:1007E0006ABD81E022C006B517B56C2F70E080E0CD
:1007F00090E00E942C0720E030E048EC52E40E9498
:1008000089066B017C01B80180E090E00E942A0714
:100810009B01AC01C701B6010E94B8070E94FB060C
:1008200079BD68BD81E001C080E09EB592609EBD4B
:10083000DF91CF911F910F91FF90EF90DF90CF90BC
:100840000895813019F0823029F008C01BBC1ABC11
:1008500081E0089519BC18BC81E0089580E00895F6
:100860000F931F938B019C01672B682B692B89F4D5
:1008700016C000000196883EE3E09E07D1F74F5F67
:100880005F4F6F4F7F4F041715072607370721F477
:1008900006C040E050E0BA0180E090E0EACF1F914E
:1008A0000F91089581E00E947D0282E00E947D0206
:1008B0000895823031F128F4882349F0813079F0AD
:1008C00056C0833081F1843009F43FC050C081E0CC
:1008D0000E94680382E00E94680381E0089561E05D
:1008E00081E00E94D60264E181E00E94350361E06C
:1008F00082E00E94D60264E182E00E94350381E03A
:10090000089562E081E00E94D60264E181E00E94E5
:10091000350362E082E00E94D60264E182E00E9438
:10092000350381E0089562E081E00E94D60264E12F
:1009300081E00E94350361E082E00E94D60264E11A
:1009400082E00E94350381E0089561E081E00E9429
:10095000D60264E181E00E94350362E082E00E94F9
:10096000D60264E182E00E94350381E0089580E0D0
:100970000895FC01892B09F486C08081813079F1CA
:1009800020F0823009F455C080C08181813021F08F
:1009900068F0823031F00FC087E08093700081E012
:1009A0000BC086E08093700081E006C08381809355
:1009B000700081E001C080E09281992319F09130AC
:1009C00029F008C099B79E7F99BF05C099B791607B
:1009D00099BF01C080E091E090936F0008958181FC
:1009E000813021F068F0823031F00FC087E08093D1
:1009F000700081E00BC086E08093700081E006C04B
:100A000083818093700081E001C080E0928199230E
:100A100019F0913029F008C099B79B7F99BF05C0A4
:100A200099B7946099BF01C080E091E090936E0007
:100A300008958181813021F068F0823031F00FC05B
:100A400087E08093700081E00BC086E080937000A7
:100A500081E006C083818093700081E001C080E066
:100A60009281992319F0913029F008C099B79F7BA2
:100A700099BF05C099B7906499BF01C080E091E02B
:100A800090936D00089580E0089580E0089581308E
:100A9000D9F120F0823009F46EC0A7C080916F00B8
:100AA000882309F4A4C0809170008230B1F028F44A
:100AB000882351F0813061F024C08630C1F0873046
:100AC000D9F08430F1F40EC083B783BF81E01AC03F
:100AD00083B7816083BF81E015C083B7826083BF25
:100AE00081E010C083B7836083BF81E00BC083B710
:100AF000846083BF81E006C083B7856083BF81E0E7
:100B000001C080E062BF089580916E00882309F4DF
:100B100070C0809170008230B1F028F4882351F0C9
:100B2000813061F024C08630C1F08730D9F0843044
:100B3000F1F40EC08EB58EBD81E01AC08EB5816015
:100B40008EBD81E015C08EB582608EBD81E010C083
:100B50008EB583608EBD81E00BC08EB584608EBD86
:100B600081E006C08EB585608EBD81E001C080E069
:100B70007DBD6CBD089580916D008823E1F1E09109
:100B800070008E2F90E08830910560F5FC01E65DE5
:100B9000FF4F0C94470885B585BD81E024C085B51D
:100BA000816085BD81E01FC085B5826085BD81E023
:100BB0001AC085B5836085BD81E015C085B58460A8
:100BC00085BD81E010C085B5856085BD81E00BC025
:100BD00085B5866085BD81E006C085B5876085BD29
:100BE00081E001C080E064BD089580E0089580E068
:100BF000089580E0089580E00895843048F58130BC
:100C000079F018F08230C9F025C080916F008823F8
:100C100019F182B790E0FB019183808381E0089510
:100C200080916E008823D1F02DB58CB590E0922B89
:100C3000FB019183808381E0089580916D0088237A
:100C400079F084B590E0FB019183808381E0089581
:100C500080E0089580E0089580E0089580E00895A0
:100C600080E00895CF93DF9300D000D01F92CDB7DE
:100C7000DEB781E0898388E08A838FEF8B83CE01A2
:100C800001960E94900082E08C831D82CE01049622
:100C90000E9487010F900F900F900F900F90DF919F
:100CA000CF9108954FEF68E081E00E94EE0089EF58
:100CB00090E00197F1F700C0000040E068E081E0BB
:100CC0000E94EE0008950F931F93CF93DF9300D0FF
:100CD000CDB7DEB78C01AE014F5F5F4F61E080E0C2
:100CE0000E94C301482F29813A81AFE9B6E40E94EE
:100CF0004D08929582958F7089279F708927F801FA
:100D00008083842F0F900F90DF91CF911F910F91CF
:100D100008950E949D060C947E070E94770758F064
:100D20000E94700740F029F45F3F29F00C94670798
:100D300051110C94B2070C946D070E948F0768F351
:100D40009923B1F3552391F3951B550BBB27AA2784
:100D500062177307840738F09F5F5F4F220F331FBE
:100D6000441FAA1FA9F335D00E2E3AF0E0E832D086
:100D700091505040E695001CCAF72BD0FE2F29D089
:100D8000660F771F881FBB1F261737074807AB075B
:100D9000B0E809F0BB0B802DBF01FF2793585F4FD0
:100DA0003AF09E3F510578F00C9467070C94B20717
:100DB0005F3FE4F3983ED4F3869577956795B795B2
:100DC000F7959F5FC9F7880F911D9695879597F9BD
:100DD0000895E1E0660F771F881FBB1F6217730736
:100DE0008407BA0720F0621B730B840BBA0BEE1F4B
:100DF00088F7E09508950E94970788F09F5798F02C
:100E0000B92F9927B751B0F0E1F0660F771F881F0F
:100E1000991F1AF0BA95C9F714C0B13091F00E9429
:100E2000B107B1E008950C94B107672F782F882798
:100E3000B85F39F0B93FCCF3869577956795B39550
:100E4000D9F73EF490958095709561957F4F8F4FBF
:100E50009F4F0895E89409C097FB3EF490958095C4
:100E6000709561957F4F8F4F9F4F9923A9F0F92F70
:100E700096E9BB279395F695879577956795B795EE
:100E8000F111F8CFFAF4BB0F11F460FF1BC06F5FD4
:100E90007F4F8F4F9F4F16C0882311F096E911C0E6
:100EA000772321F09EE8872F762F05C0662371F007
:100EB00096E8862F70E060E02AF09A95660F771F1B
:100EC000881FDAF7880F9695879597F9089597F90F
:100ED0009F6780E870E060E008959FEF80EC0895E0
:100EE00000240A9416161706180609060895002409
:100EF0000A9412161306140605060895092E039483
:100F0000000C11F4882352F0BB0F40F4BF2B11F4F6
:100F100060FF04C06F5F7F4F8F4F9F4F089557FD55
:100F20009058440F551F59F05F3F71F04795880F57
:100F300097FB991F61F09F3F79F0879508951216EE
:100F400013061406551FF2CF4695F1DF08C016169A
:100F500017061806991FF1CF86957105610508944B
:100F60000895E894BB2766277727CB0197F9089562
:100F70000E94CB070C947E070E94700738F00E94F5
:100F8000770720F0952311F00C9467070C946D07F8
:100F900011240C94B2070E948F0770F3959FC1F340
:100FA000950F50E0551F629FF001729FBB27F00D17
:100FB000B11D639FAA27F00DB11DAA1F649F66276C
:100FC000B00DA11D661F829F2227B00DA11D621FBB
:100FD000739FB00DA11D621F839FA00D611D221F75
:100FE000749F3327A00D611D231F849F600D211D59
:100FF000822F762F6A2F11249F5750409AF0F1F0DC
:1010000088234AF0EE0FFF1FBB1F661F771F881F44
:1010100091505040A9F79E3F510580F00C9467070E
:101020000C94B2075F3FE4F3983ED4F3869577952E
:101030006795B795F795E7959F5FC1F7FE2B880FEA
:10104000911D9695879597F90895A1E21A2EAA1BEE
:10105000BB1BFD010DC0AA1FBB1FEE1FFF1FA21768
:10106000B307E407F50720F0A21BB30BE40BF50B65
:10107000661F771F881F991F1A9469F760957095EE
:10108000809590959B01AC01BD01CF010895EE0FB5
:10109000FF1F0590F491E02D0994A29FB001B39F2A
:1010A000C001A39F700D811D1124911DB29F700D71
:0C10B000811D1124911D0895F894FFCFBC
:0210BC00010031
:00000001FF
