S01B00006361724150505F53746174696344657369676E2E73726563D1
S11300000C9432000C94A2010C94C9010C947B0250
S11300100C944F000C944F000C944F000C944F0020
S11300200C944F000C944F000C944F000C94CA0293
S11300300C944F000C944F000C944F000C944F0000
S11300400C944F000C944F000C944F000C944F00F0
S11300500C944F003A053E05430548054D055205ED
S113006057055C0511241FBECFE5D8E0DEBFCDBF28
S113007010E0A0E6B0E0E2EEFBE002C005900D92D5
S1130080A236B107D9F720E0A2E6B0E001C01D9284
S1130090A737B207E1F70E94DB020C94EF050C943A
S11300A000000E94DA030E94A3050895CF93DF9312
S11300B000D01F92CDB7DEB782E089838FEF8A83A9
S11300C08B83CE0101960E94A60001E014E00E94F9
S11300D0C30561E070E080E090E00E94B80382E62E
S11300E090E00E94D405409162006FEF82E00E948C
S11300F00401809162008E3138F41093630069E149
S113010082E00E94E1031BC092EE980F963040F407
S113011082E08093630069E183E00E94E1030FC001
S1130120833238F00093630069E1802F0E94E10379
S113013006C01092630069E180E00E94E1036EE171
S113014070E080E090E00E94B803C1CF009709F40A
S113015055C0FC012081243008F052C02130C1F088
S113016028F0223039F12330B9F14CC0FC0122814E
S1130170211107C02AB38181809582238ABB81E043
S113018008952AB3FC018181822B8ABB81E0089502
S1130190FC012281211107C027B38181809582232C
S11301A087BB81E0089527B3FC018181822B87BB43
S11301B081E00895FC012281211107C024B38181CB
S11301C08095822384BB81E0089524B3FC0181815E
S11301D0822B84BB81E00895FC012281211107C098
S11301E021B381818095822381BB81E0089521B36D
S11301F0FC018181822B81BB81E0089580E0089518
S113020080E0089580E00895843008F040C0813093
S1130210A1F028F08230F9F0833059F13AC041114D
S113022006C08BB3609568236BBB81E008958BB3E4
S11302306423682B6BBB81E00895411106C088B329
S11302406095682368BB81E0089588B36423682BB4
S113025068BB81E00895411106C085B360956823A9
S113026065BB81E0089585B36423682B65BB81E099
S11302700895411106C082B36095682362BB81E092
S1130280089582B36423682B62BB81E0089580E003
S1130290089580E00895813029F484B7806484BF90
S11302A081E00895811105C084B78F7B84BF81E00C
S11302B0089580E00895CF93DF9300D01F92CDB7C7
S11302C0DEB7813041F018F0823049F015C08BB7A9
S11302D080648BBF13C08BB780688BBF0FC08BB794
S11302E080628BBF81E0898384E08A831B82CE0194
S11302F001960E94A60002C080E001C081E09FB781
S113030090689FBF0F900F900F90DF91CF91089549
S1130310813049F018F0823059F012C08BB78F7BCE
S11303208BBF81E008958BB78F778BBF81E00895F1
S11303308BB78F7D8BBF8AB780628ABF81E00895B7
S113034080E008951F920F920FB60F9211242F93FD
S11303503F934F935F936F937F938F939F93AF9349
S1130360BF93EF93FF93E0916400F09165000995CA
S1130370FF91EF91BF91AF919F918F917F916F9179
S11303805F914F913F912F910F900FBE0F901F904F
S113039018951F920F920FB60F9211242F933F932B
S11303A04F935F936F937F938F939F93AF93BF9379
S11303B0EF93FF93E0916600F09167000995FF9138
S11303C0EF91BF91AF919F918F917F916F915F91C9
S11303D04F913F912F910F900FBE0F901F90189542
S11303E00F931F93CF93DF9300D000D000D0CDB7ED
S11303F0DEB78C01CE01019626E0FC0111922A950C
S1130400E9F7F8012181298321E02B8327E02C835C
S113041020E430E030936C0020936B000E942004B1
S113042060E070E0F80181810E94B304F8018081EA
S11304300E945B0181E00E944B0126960FB6F8945E
S1130440DEBF0FBECDBFDF91CF911F910F910895F5
S1130450882329F0833008F44AC080E0089561308D
S1130460C1F018F0623049F144C020916F0030911E
S1130470700060916B0070916C00629FC001639F7B
S1130480900D729F900D1124FA019183808381E075
S1130490089520916D0030916E0060916B00709111
S11304A06C00629FC001639F900D729F900D112498
S11304B0FA019183808381E0089580916F00909187
S11304C0700020916D0030916E00821B930B60913F
S11304D06B0070916C00869F9001879F300D969FF2
S11304E0300D1124FA013183208381E0089581E0E5
S11304F0089580E008951F920F920FB60F92112471
S11305002F933F934F935F936F937F938F939F9317
S1130510AF93BF93EF93FF93809160008823C1F062
S1130520813039F560E070E080E00E94B3046FE64A
S113053070E080E00E946E0582E00E94880180E005
S11305400E944B0182E00E945B011092600011C086
S11305506DE670E080E00E946E0582E00E948801F2
S113056081E00E944B0182E00E945B0181E0809364
S11305706000FF91EF91BF91AF919F918F917F9117
S11305806F915F914F913F912F910F900FBE0F90FC
S11305901F9018951F920F920FB60F9211248F93EC
S11305A080916A008F5F80936A008F910F900FBED5
S11305B00F901F9018950E9451000E945600FDCF85
S11305C00F931F93CF93DF93CDB7DEB729970FB661
S11305D0F894DEBF0FBECDBF813019F08230F9F040
S11305E03CC003E0098380E18A831FEF1B83CE01B3
S11305F001960E94A6000C8384E08D831E83CE01A5
S113060004960E94A6000F8388E088871987CE018C
S113061007960E94A60081E0809372001FC003E049
S1130620098380E28A831FEF1B83CE0101960E9417
S1130630A6000C8380E48D831E83CE0104960E9461
S1130640A6000F8380E888871987CE0107960E9449
S1130650A60081E08093730001C080E029960FB664
S1130660F894DEBF0FBECDBFDF91CF911F910F91E4
S11306700895813019F0823059F154C0613021F06D
S1130680D8F0623069F050C04FEF64E083E00E941C
S1130690040140E068E083E00E94040181E00895E1
S11306A040E064E083E00E9404014FEF68E083E0EF
S11306B00E94040181E0089540E064E083E00E9428
S11306C0040140E068E083E00E94040181E00895B1
S11306D0613021F0D8F0623069F028C04FEF60E457
S11306E083E00E94040140E060E883E00E9404018A
S11306F081E0089540E060E483E00E9404014FEF4C
S113070060E883E00E94040181E0089540E060E431
S113071083E00E94040140E060E883E00E94040159
S113072081E0089580E0089581E0089581E00895CE
S1130730813019F0823031F00AC081E00E94A903AF
S113074081E0089582E00E94A90381E0089580E099
S11307500895813019F0823029F008C01BBC1ABCFE
S113076081E0089519BC18BC81E0089580E00895E3
S11307700F931F938B019C01672B682B692B89F4C2
S113078016C000000196883EE3E09E07D1F74F5F54
S11307905F4F6F4F7F4F041715072607370721F464
S11307A006C040E050E0BA0180E090E0EACF1F913B
S11307B00F91089581E00E94E00282E00E94E0022D
S11307C008958230E9F028F4882341F0813071F0F3
S11307D035C08330F9F0843039F130C081E00E94B3
S11307E0980382E00E94980381E0089561E081E02B
S11307F00E94390361E082E00E94390381E0089598
S113080062E081E00E94390362E082E00E943903E1
S113081081E0089562E081E00E94390361E082E0B2
S11308200E94390381E0089561E081E00E94390368
S113083062E082E00E94390381E0089580E0089537
S1130840FC01892B09F489C08081843008F087C0B9
S1130850813079F120F0823009F455C082C0818161
S1130860813021F068F0823031F00FC087E080934E
S1130870760081E00BC086E08093760081E006C0BC
S113088083818093760081E001C080E09281992386
S113089019F0913029F008C099B79E7F99BF05C01F
S11308A099B7916099BF01C080E091E09093750081
S11308B008958181813021F068F0823031F00FC0D9
S11308C087E08093760081E00BC086E08093760019
S11308D081E006C083818093760081E001C080E0DE
S11308E09281992319F0913029F008C099B79B7F20
S11308F099BF05C099B7946099BF01C080E091E0A9
S11309009093740008958181813021F068F08230E1
S113091031F00FC087E08093760081E00BC086E061
S11309208093760081E006C083818093760081E025
S113093001C080E09281992319F0913029F008C018
S113094099B79F7B99BF05C099B7906499BF01C0BF
S113095080E091E090937300089580E0089580E032
S1130960089580E00895843008F0AEC08130D9F154
S113097020F0823009F46EC0A9C0809175008823EC
S113098009F4A6C0809176008230B1F028F488235F
S113099051F0813061F024C08630C1F08730D9F045
S11309A08430F1F40EC083B783BF81E01AC083B7EB
S11309B0816083BF81E015C083B7826083BF81E01B
S11309C010C083B7836083BF81E00BC083B78460AA
S11309D083BF81E006C083B7856083BF81E001C027
S11309E080E062BF089580917400882309F472C086
S11309F0809176008230B1F028F4882351F0813060
S1130A0061F024C08630C1F08730D9F08430F1F42D
S1130A100EC08EB58EBD81E01AC08EB581608EBDCC
S1130A2081E015C08EB582608EBD81E010C08EB5A8
S1130A3083608EBD81E00BC08EB584608EBD81E085
S1130A4006C08EB585608EBD81E001C080E07DBDAD
S1130A506CBD0895809173008823F1F1E0917600D4
S1130A608E2F90E08830910560F5FC01E65DFF4F24
S1130A700C94E90585B585BD81E024C085B5816008
S1130A8085BD81E01FC085B5826085BD81E01AC047
S1130A9085B5836085BD81E015C085B5846085BD5D
S1130AA081E010C085B5856085BD81E00BC085B54A
S1130AB0866085BD81E006C085B5876085BD81E01F
S1130AC001C080E064BD089580E0089580E0089549
S1130AD080E0089580E0089580E00895843048F52A
S1130AE0813079F018F08230C9F025C0809175000A
S1130AF0882319F182B790E0FB019183808381E020
S1130B000895809174008823D1F02DB58CB590E0C0
S1130B10922BFB019183808381E00895809173007F
S1130B20882379F084B590E0FB019183808381E090
S1130B30089580E0089580E0089580E0089580E0BD
S1130B40089580E00895CF93DF9300D000D01F92E2
S1130B50CDB7DEB781E0898388E08A838FEF8B830A
S1130B60CE0101960E94A60082E08C831D82CE01F4
S1130B7004960E94F0010F900F900F900F900F9029
S1130B80DF91CF9108954FEF68E081E00E94040166
S1130B9061E070E080E090E00E94B80340E068E02B
S1130BA081E00E9404010895CF93DF93EC01AC012E
S1130BB061E080E00E9428029881969527E4929F44
S1130BC0912D11249695969596959883DF91CF91C2
S1130BD00895EE0FFF1F0590F491E02D0994F89409
S1050BE0FFCF41
S1050BE201000C
S9030000FC
